{"contracts/EasyWalksMarketplace.sol":{"EasyWalksMarketplace":{"abi":[{"inputs":[{"internalType":"uint16","name":"_platformFeeBps","type":"uint16"}],"stateMutability":"nonpayable","type":"constructor"},{"anonymous":false,"inputs":[{"indexed":true,"internalType":"address","name":"creator","type":"address"},{"indexed":false,"internalType":"uint256","name":"amount","type":"uint256"}],"name":"CreatorPaid","type":"event"},{"anonymous":false,"inputs":[{"indexed":true,"internalType":"address","name":"creator","type":"address"},{"indexed":false,"internalType":"uint256","name":"amount","type":"uint256"}],"name":"EarningsWithdrawn","type":"event"},{"anonymous":false,"inputs":[{"indexed":true,"internalType":"uint256","name":"routeId","type":"uint256"},{"indexed":true,"internalType":"address","name":"buyer","type":"address"},{"indexed":false,"internalType":"uint256","name":"price","type":"uint256"}],"name":"RoutePurchased","type":"event"},{"anonymous":false,"inputs":[{"indexed":true,"internalType":"uint256","name":"routeId","type":"uint256"},{"indexed":false,"internalType":"uint256","name":"price","type":"uint256"},{"indexed":false,"internalType":"uint8","name":"creatorCount","type":"uint8"}],"name":"RouteRegistered","type":"event"},{"inputs":[{"internalType":"address","name":"","type":"address"}],"name":"creatorBalance","outputs":[{"internalType":"uint256","name":"","type":"uint256"}],"stateMutability":"view","type":"function"},{"inputs":[{"internalType":"uint256","name":"routeId","type":"uint256"}],"name":"deactivateRoute","outputs":[],"stateMutability":"nonpayable","type":"function"},{"inputs":[{"internalType":"uint256","name":"routeId","type":"uint256"}],"name":"getRoute","outputs":[{"internalType":"address[]","name":"creators","type":"address[]"},{"internalType":"uint16[]","name":"sharesBps","type":"uint16[]"},{"internalType":"uint256","name":"priceWei","type":"uint256"},{"internalType":"bytes32","name":"routeHash","type":"bytes32"},{"internalType":"bool","name":"active","type":"bool"}],"stateMutability":"view","type":"function"},{"inputs":[{"internalType":"address","name":"buyer","type":"address"},{"internalType":"uint256","name":"routeId","type":"uint256"}],"name":"hasPurchased","outputs":[{"internalType":"bool","name":"","type":"bool"}],"stateMutability":"view","type":"function"},{"inputs":[],"name":"nextRouteId","outputs":[{"internalType":"uint256","name":"","type":"uint256"}],"stateMutability":"view","type":"function"},{"inputs":[],"name":"owner","outputs":[{"internalType":"address","name":"","type":"address"}],"stateMutability":"view","type":"function"},{"inputs":[],"name":"platformFeeBps","outputs":[{"internalType":"uint16","name":"","type":"uint16"}],"stateMutability":"view","type":"function"},{"inputs":[{"internalType":"uint256","name":"routeId","type":"uint256"}],"name":"purchaseRoute","outputs":[],"stateMutability":"payable","type":"function"},{"inputs":[{"internalType":"address","name":"","type":"address"},{"internalType":"uint256","name":"","type":"uint256"}],"name":"purchased","outputs":[{"internalType":"bool","name":"","type":"bool"}],"stateMutability":"view","type":"function"},{"inputs":[{"internalType":"address[]","name":"creators","type":"address[]"},{"internalType":"uint16[]","name":"sharesBps","type":"uint16[]"},{"internalType":"uint256","name":"priceWei","type":"uint256"},{"internalType":"bytes32","name":"routeHash","type":"bytes32"}],"name":"registerRoute","outputs":[{"internalType":"uint256","name":"routeId","type":"uint256"}],"stateMutability":"nonpayable","type":"function"},{"inputs":[],"name":"withdrawEarnings","outputs":[],"stateMutability":"nonpayable","type":"function"},{"inputs":[],"name":"withdrawPlatformFees","outputs":[],"stateMutability":"nonpayable","type":"function"}],"evm":{"bytecode":{"linkReferences":{},"object":"608060405234801561000f575f80fd5b5060405161102738038061102783398101604081905261002e916100ad565b610bb88161ffff1611156100775760405162461bcd60e51b815260206004820152600c60248201526b0cccaca40e8dede40d0d2ced60a31b604482015260640160405180910390fd5b5f80546001600160b01b0319163361ffff60a01b191617600160a01b61ffff9390931692909202919091179055600180556100d5565b5f602082840312156100bd575f80fd5b815161ffff811681146100ce575f80fd5b9392505050565b610f45806100e25f395ff3fe6080604052600436106100a5575f3560e01c8063b73c6ce911610062578063b73c6ce91461019d578063d0b7830b146101b1578063dd74e57e146101c5578063e597ef12146101e4578063e6cd7ab61461021d578063fa66358a14610248575f80fd5b806311923132146100a957806322dcd13e146100dd578063279b6d31146101105780634f7033ca146101315780638da5cb5b14610144578063975cf3131461017a575b5f80fd5b3480156100b4575f80fd5b506100c86100c3366004610c48565b610278565b60405190151581526020015b60405180910390f35b3480156100e8575f80fd5b505f546100fd90600160a01b900461ffff1681565b60405161ffff90911681526020016100d4565b34801561011b575f80fd5b5061012f61012a366004610c70565b6102a5565b005b61012f61013f366004610c70565b6102f1565b34801561014f575f80fd5b505f54610162906001600160a01b031681565b6040516001600160a01b0390911681526020016100d4565b348015610185575f80fd5b5061018f60015481565b6040519081526020016100d4565b3480156101a8575f80fd5b5061012f61058c565b3480156101bc575f80fd5b5061012f6106a5565b3480156101d0575f80fd5b5061018f6101df366004610ccf565b610765565b3480156101ef575f80fd5b506100c86101fe366004610c48565b600360209081525f928352604080842090915290825290205460ff1681565b348015610228575f80fd5b5061018f610237366004610d47565b60046020525f908152604090205481565b348015610253575f80fd5b50610267610262366004610c70565b610b16565b6040516100d4959493929190610d67565b6001600160a01b0382165f90815260036020908152604080832084845290915290205460ff165b92915050565b5f546001600160a01b031633146102d75760405162461bcd60e51b81526004016102ce90610e0c565b60405180910390fd5b5f908152600260205260409020600401805460ff19169055565b5f818152600260205260409020600481015460ff166103455760405162461bcd60e51b815260206004820152601060248201526f726f757465206e6f742061637469766560801b60448201526064016102ce565b335f90815260036020908152604080832085845290915290205460ff16156103a35760405162461bcd60e51b8152602060048201526011602482015270185b1c9958591e481c1d5c98da185cd959607a1b60448201526064016102ce565b806002015434146103e65760405162461bcd60e51b815260206004820152600d60248201526c1ddc9bdb99c81c185e5b595b9d609a1b60448201526064016102ce565b335f9081526003602090815260408083208584529091528120805460ff191660011790558054612710906104269061ffff600160a01b9091041634610e44565b6104309190610e5b565b90505f61043d8234610e7a565b90505f5b835481101561054e575f61271085600101838154811061046357610463610e8d565b5f918252602090912060108204015461048c91600f166002026101000a900461ffff1685610e44565b6104969190610e5b565b90508060045f875f0185815481106104b0576104b0610e8d565b5f9182526020808320909101546001600160a01b03168352820192909252604001812080549091906104e3908490610ea1565b909155505084548590839081106104fc576104fc610e8d565b5f91825260209182902001546040518381526001600160a01b03909116917f14f433c13badc2239830ab3bb19e75dec63d39f851363844cc4e4650d0c9b601910160405180910390a250600101610441565b50604051348152339085907f4eb6e0f96b0e81b772ff51c09f43836a2ff429d38e973be4bc811a669229e8189060200160405180910390a350505050565b335f90815260046020526040902054806105d65760405162461bcd60e51b815260206004820152600b60248201526a6e6f206561726e696e677360a81b60448201526064016102ce565b335f818152600460205260408082208290555190919083908381818185875af1925050503d805f8114610624576040519150601f19603f3d011682016040523d82523d5f602084013e610629565b606091505b505090508061066c5760405162461bcd60e51b815260206004820152600f60248201526e1d1c985b9cd9995c8819985a5b1959608a1b60448201526064016102ce565b60405182815233907f48dc35af7b45e2a81fffad55f6e2fafacdb1d3d0d50d24ebdc16324f5ba757f19060200160405180910390a25050565b5f546001600160a01b031633146106ce5760405162461bcd60e51b81526004016102ce90610e0c565b5f80546040514792916001600160a01b03169083908381818185875af1925050503d805f8114610719576040519150601f19603f3d011682016040523d82523d5f602084013e61071e565b606091505b50509050806107615760405162461bcd60e51b815260206004820152600f60248201526e1d1c985b9cd9995c8819985a5b1959608a1b60448201526064016102ce565b5050565b5f80546001600160a01b0316331461078f5760405162461bcd60e51b81526004016102ce90610e0c565b856107ca5760405162461bcd60e51b815260206004820152600b60248201526a6e6f2063726561746f727360a81b60448201526064016102ce565b85841461080b5760405162461bcd60e51b815260206004820152600f60248201526e0d8cadccee8d040dad2e6dac2e8c6d608b1b60448201526064016102ce565b5f831161084e5760405162461bcd60e51b815260206004820152601160248201527007072696365206d757374206265203e203607c1b60448201526064016102ce565b5f805b85811015610967575f89898381811061086c5761086c610e8d565b90506020020160208101906108819190610d47565b6001600160a01b0316036108c65760405162461bcd60e51b815260206004820152600c60248201526b7a65726f206164647265737360a01b60448201526064016102ce565b5f8787838181106108d9576108d9610e8d565b90506020020160208101906108ee9190610eb4565b61ffff161161092c5760405162461bcd60e51b815260206004820152600a6024820152697a65726f20736861726560b01b60448201526064016102ce565b86868281811061093e5761093e610e8d565b90506020020160208101906109539190610eb4565b61095d9083610ed5565b9150600101610851565b508061ffff16612710146109bd5760405162461bcd60e51b815260206004820152601860248201527f736861726573206d7573742073756d20746f203130303030000000000000000060448201526064016102ce565b60018054905f6109cc83610ef7565b909155505f81815260026020819052604082209081018790556003810186905560048101805460ff191660011790559193505b88811015610acc57818a8a83818110610a1a57610a1a610e8d565b9050602002016020810190610a2f9190610d47565b8154600180820184555f93845260209093200180546001600160a01b0319166001600160a01b03929092169190911790558201888883818110610a7457610a74610e8d565b9050602002016020810190610a899190610eb4565b8154600180820184555f938452602090932060108204018054600f9092166002026101000a61ffff818102199093169390921691909102919091179055016109ff565b506040805186815260ff8a16602082015284917f92b6117edff650e2266c739a9c83abedee914f1054c8d1b82982ad16ccd8b315910160405180910390a250509695505050505050565b5f818152600260208181526040808420928301546003840154600485015485548451818702810187019095528085526060978897909687968796929586956001870195919360ff90911692918791830182828015610b9b57602002820191905f5260205f20905b81546001600160a01b03168152600190910190602001808311610b7d575b5050505050945083805480602002602001604051908101604052809291908181526020018280548015610c1257602002820191905f5260205f20905f905b82829054906101000a900461ffff1661ffff1681526020019060020190602082600101049283019260010382029150808411610bd95790505b50505050509350955095509550955095505091939590929450565b80356001600160a01b0381168114610c43575f80fd5b919050565b5f8060408385031215610c59575f80fd5b610c6283610c2d565b946020939093013593505050565b5f60208284031215610c80575f80fd5b5035919050565b5f8083601f840112610c97575f80fd5b50813567ffffffffffffffff811115610cae575f80fd5b6020830191508360208260051b8501011115610cc8575f80fd5b9250929050565b5f805f805f8060808789031215610ce4575f80fd5b863567ffffffffffffffff80821115610cfb575f80fd5b610d078a838b01610c87565b90985096506020890135915080821115610d1f575f80fd5b50610d2c89828a01610c87565b979a9699509760408101359660609091013595509350505050565b5f60208284031215610d57575f80fd5b610d6082610c2d565b9392505050565b60a080825286519082018190525f9060209060c0840190828a01845b82811015610da85781516001600160a01b031684529284019290840190600101610d83565b505050838103828501528751808252888301918301905f5b81811015610de057835161ffff1683529284019291840191600101610dc0565b5050809350505050846040830152836060830152610e02608083018415159052565b9695505050505050565b6020808252600a908201526937b7363c9037bbb732b960b11b604082015260600190565b634e487b7160e01b5f52601160045260245ffd5b808202811582820484141761029f5761029f610e30565b5f82610e7557634e487b7160e01b5f52601260045260245ffd5b500490565b8181038181111561029f5761029f610e30565b634e487b7160e01b5f52603260045260245ffd5b8082018082111561029f5761029f610e30565b5f60208284031215610ec4575f80fd5b813561ffff81168114610d60575f80fd5b61ffff818116838216019080821115610ef057610ef0610e30565b5092915050565b5f60018201610f0857610f08610e30565b506001019056fea26469706673582212208033263b9a206e94d7caed7b5a84cfd9684b2cb1622b3c53433ec448eb76d9d164736f6c63430008180033","opcodes":"PUSH1 0x80 PUSH1 0x40 MSTORE CALLVALUE DUP1 ISZERO PUSH2 0xF JUMPI PUSH0 DUP1 REVERT JUMPDEST POP PUSH1 0x40 MLOAD PUSH2 0x1027 CODESIZE SUB DUP1 PUSH2 0x1027 DUP4 CODECOPY DUP2 ADD PUSH1 0x40 DUP2 SWAP1 MSTORE PUSH2 0x2E SWAP2 PUSH2 0xAD JUMP JUMPDEST PUSH2 0xBB8 DUP2 PUSH2 0xFFFF AND GT ISZERO PUSH2 0x77 JUMPI PUSH1 0x40 MLOAD PUSH3 0x461BCD PUSH1 0xE5 SHL DUP2 MSTORE PUSH1 0x20 PUSH1 0x4 DUP3 ADD MSTORE PUSH1 0xC PUSH1 0x24 DUP3 ADD MSTORE PUSH12 0xCCCACA40E8DEDE40D0D2CED PUSH1 0xA3 SHL PUSH1 0x44 DUP3 ADD MSTORE PUSH1 0x64 ADD PUSH1 0x40 MLOAD DUP1 SWAP2 SUB SWAP1 REVERT JUMPDEST PUSH0 DUP1 SLOAD PUSH1 0x1 PUSH1 0x1 PUSH1 0xB0 SHL SUB NOT AND CALLER PUSH2 0xFFFF PUSH1 0xA0 SHL NOT AND OR PUSH1 0x1 PUSH1 0xA0 SHL PUSH2 0xFFFF SWAP4 SWAP1 SWAP4 AND SWAP3 SWAP1 SWAP3 MUL SWAP2 SWAP1 SWAP2 OR SWAP1 SSTORE PUSH1 0x1 DUP1 SSTORE PUSH2 0xD5 JUMP JUMPDEST PUSH0 PUSH1 0x20 DUP3 DUP5 SUB SLT ISZERO PUSH2 0xBD JUMPI PUSH0 DUP1 REVERT JUMPDEST DUP2 MLOAD PUSH2 0xFFFF DUP2 AND DUP2 EQ PUSH2 0xCE JUMPI PUSH0 DUP1 REVERT JUMPDEST SWAP4 SWAP3 POP POP POP JUMP JUMPDEST PUSH2 0xF45 DUP1 PUSH2 0xE2 PUSH0 CODECOPY PUSH0 RETURN INVALID PUSH1 0x80 PUSH1 0x40 MSTORE PUSH1 0x4 CALLDATASIZE LT PUSH2 0xA5 JUMPI PUSH0 CALLDATALOAD PUSH1 0xE0 SHR DUP1 PUSH4 0xB73C6CE9 GT PUSH2 0x62 JUMPI DUP1 PUSH4 0xB73C6CE9 EQ PUSH2 0x19D JUMPI DUP1 PUSH4 0xD0B7830B EQ PUSH2 0x1B1 JUMPI DUP1 PUSH4 0xDD74E57E EQ PUSH2 0x1C5 JUMPI DUP1 PUSH4 0xE597EF12 EQ PUSH2 0x1E4 JUMPI DUP1 PUSH4 0xE6CD7AB6 EQ PUSH2 0x21D JUMPI DUP1 PUSH4 0xFA66358A EQ PUSH2 0x248 JUMPI PUSH0 DUP1 REVERT JUMPDEST DUP1 PUSH4 0x11923132 EQ PUSH2 0xA9 JUMPI DUP1 PUSH4 0x22DCD13E EQ PUSH2 0xDD JUMPI DUP1 PUSH4 0x279B6D31 EQ PUSH2 0x110 JUMPI DUP1 PUSH4 0x4F7033CA EQ PUSH2 0x131 JUMPI DUP1 PUSH4 0x8DA5CB5B EQ PUSH2 0x144 JUMPI DUP1 PUSH4 0x975CF313 EQ PUSH2 0x17A JUMPI JUMPDEST PUSH0 DUP1 REVERT JUMPDEST CALLVALUE DUP1 ISZERO PUSH2 0xB4 JUMPI PUSH0 DUP1 REVERT JUMPDEST POP PUSH2 0xC8 PUSH2 0xC3 CALLDATASIZE PUSH1 0x4 PUSH2 0xC48 JUMP JUMPDEST PUSH2 0x278 JUMP JUMPDEST PUSH1 0x40 MLOAD SWAP1 ISZERO ISZERO DUP2 MSTORE PUSH1 0x20 ADD JUMPDEST PUSH1 0x40 MLOAD DUP1 SWAP2 SUB SWAP1 RETURN JUMPDEST CALLVALUE DUP1 ISZERO PUSH2 0xE8 JUMPI PUSH0 DUP1 REVERT JUMPDEST POP PUSH0 SLOAD PUSH2 0xFD SWAP1 PUSH1 0x1 PUSH1 0xA0 SHL SWAP1 DIV PUSH2 0xFFFF AND DUP2 JUMP JUMPDEST PUSH1 0x40 MLOAD PUSH2 0xFFFF SWAP1 SWAP2 AND DUP2 MSTORE PUSH1 0x20 ADD PUSH2 0xD4 JUMP JUMPDEST CALLVALUE DUP1 ISZERO PUSH2 0x11B JUMPI PUSH0 DUP1 REVERT JUMPDEST POP PUSH2 0x12F PUSH2 0x12A CALLDATASIZE PUSH1 0x4 PUSH2 0xC70 JUMP JUMPDEST PUSH2 0x2A5 JUMP JUMPDEST STOP JUMPDEST PUSH2 0x12F PUSH2 0x13F CALLDATASIZE PUSH1 0x4 PUSH2 0xC70 JUMP JUMPDEST PUSH2 0x2F1 JUMP JUMPDEST CALLVALUE DUP1 ISZERO PUSH2 0x14F JUMPI PUSH0 DUP1 REVERT JUMPDEST POP PUSH0 SLOAD PUSH2 0x162 SWAP1 PUSH1 0x1 PUSH1 0x1 PUSH1 0xA0 SHL SUB AND DUP2 JUMP JUMPDEST PUSH1 0x40 MLOAD PUSH1 0x1 PUSH1 0x1 PUSH1 0xA0 SHL SUB SWAP1 SWAP2 AND DUP2 MSTORE PUSH1 0x20 ADD PUSH2 0xD4 JUMP JUMPDEST CALLVALUE DUP1 ISZERO PUSH2 0x185 JUMPI PUSH0 DUP1 REVERT JUMPDEST POP PUSH2 0x18F PUSH1 0x1 SLOAD DUP2 JUMP JUMPDEST PUSH1 0x40 MLOAD SWAP1 DUP2 MSTORE PUSH1 0x20 ADD PUSH2 0xD4 JUMP JUMPDEST CALLVALUE DUP1 ISZERO PUSH2 0x1A8 JUMPI PUSH0 DUP1 REVERT JUMPDEST POP PUSH2 0x12F PUSH2 0x58C JUMP JUMPDEST CALLVALUE DUP1 ISZERO PUSH2 0x1BC JUMPI PUSH0 DUP1 REVERT JUMPDEST POP PUSH2 0x12F PUSH2 0x6A5 JUMP JUMPDEST CALLVALUE DUP1 ISZERO PUSH2 0x1D0 JUMPI PUSH0 DUP1 REVERT JUMPDEST POP PUSH2 0x18F PUSH2 0x1DF CALLDATASIZE PUSH1 0x4 PUSH2 0xCCF JUMP JUMPDEST PUSH2 0x765 JUMP JUMPDEST CALLVALUE DUP1 ISZERO PUSH2 0x1EF JUMPI PUSH0 DUP1 REVERT JUMPDEST POP PUSH2 0xC8 PUSH2 0x1FE CALLDATASIZE PUSH1 0x4 PUSH2 0xC48 JUMP JUMPDEST PUSH1 0x3 PUSH1 0x20 SWAP1 DUP2 MSTORE PUSH0 SWAP3 DUP4 MSTORE PUSH1 0x40 DUP1 DUP5 KECCAK256 SWAP1 SWAP2 MSTORE SWAP1 DUP3 MSTORE SWAP1 KECCAK256 SLOAD PUSH1 0xFF AND DUP2 JUMP JUMPDEST CALLVALUE DUP1 ISZERO PUSH2 0x228 JUMPI PUSH0 DUP1 REVERT JUMPDEST POP PUSH2 0x18F PUSH2 0x237 CALLDATASIZE PUSH1 0x4 PUSH2 0xD47 JUMP JUMPDEST PUSH1 0x4 PUSH1 0x20 MSTORE PUSH0 SWAP1 DUP2 MSTORE PUSH1 0x40 SWAP1 KECCAK256 SLOAD DUP2 JUMP JUMPDEST CALLVALUE DUP1 ISZERO PUSH2 0x253 JUMPI PUSH0 DUP1 REVERT JUMPDEST POP PUSH2 0x267 PUSH2 0x262 CALLDATASIZE PUSH1 0x4 PUSH2 0xC70 JUMP JUMPDEST PUSH2 0xB16 JUMP JUMPDEST PUSH1 0x40 MLOAD PUSH2 0xD4 SWAP6 SWAP5 SWAP4 SWAP3 SWAP2 SWAP1 PUSH2 0xD67 JUMP JUMPDEST PUSH1 0x1 PUSH1 0x1 PUSH1 0xA0 SHL SUB DUP3 AND PUSH0 SWAP1 DUP2 MSTORE PUSH1 0x3 PUSH1 0x20 SWAP1 DUP2 MSTORE PUSH1 0x40 DUP1 DUP4 KECCAK256 DUP5 DUP5 MSTORE SWAP1 SWAP2 MSTORE SWAP1 KECCAK256 SLOAD PUSH1 0xFF AND JUMPDEST SWAP3 SWAP2 POP POP JUMP JUMPDEST PUSH0 SLOAD PUSH1 0x1 PUSH1 0x1 PUSH1 0xA0 SHL SUB AND CALLER EQ PUSH2 0x2D7 JUMPI PUSH1 0x40 MLOAD PUSH3 0x461BCD PUSH1 0xE5 SHL DUP2 MSTORE PUSH1 0x4 ADD PUSH2 0x2CE SWAP1 PUSH2 0xE0C JUMP JUMPDEST PUSH1 0x40 MLOAD DUP1 SWAP2 SUB SWAP1 REVERT JUMPDEST PUSH0 SWAP1 DUP2 MSTORE PUSH1 0x2 PUSH1 0x20 MSTORE PUSH1 0x40 SWAP1 KECCAK256 PUSH1 0x4 ADD DUP1 SLOAD PUSH1 0xFF NOT AND SWAP1 SSTORE JUMP JUMPDEST PUSH0 DUP2 DUP2 MSTORE PUSH1 0x2 PUSH1 0x20 MSTORE PUSH1 0x40 SWAP1 KECCAK256 PUSH1 0x4 DUP2 ADD SLOAD PUSH1 0xFF AND PUSH2 0x345 JUMPI PUSH1 0x40 MLOAD PUSH3 0x461BCD PUSH1 0xE5 SHL DUP2 MSTORE PUSH1 0x20 PUSH1 0x4 DUP3 ADD MSTORE PUSH1 0x10 PUSH1 0x24 DUP3 ADD MSTORE PUSH16 0x726F757465206E6F7420616374697665 PUSH1 0x80 SHL PUSH1 0x44 DUP3 ADD MSTORE PUSH1 0x64 ADD PUSH2 0x2CE JUMP JUMPDEST CALLER PUSH0 SWAP1 DUP2 MSTORE PUSH1 0x3 PUSH1 0x20 SWAP1 DUP2 MSTORE PUSH1 0x40 DUP1 DUP4 KECCAK256 DUP6 DUP5 MSTORE SWAP1 SWAP2 MSTORE SWAP1 KECCAK256 SLOAD PUSH1 0xFF AND ISZERO PUSH2 0x3A3 JUMPI PUSH1 0x40 MLOAD PUSH3 0x461BCD PUSH1 0xE5 SHL DUP2 MSTORE PUSH1 0x20 PUSH1 0x4 DUP3 ADD MSTORE PUSH1 0x11 PUSH1 0x24 DUP3 ADD MSTORE PUSH17 0x185B1C9958591E481C1D5C98DA185CD959 PUSH1 0x7A SHL PUSH1 0x44 DUP3 ADD MSTORE PUSH1 0x64 ADD PUSH2 0x2CE JUMP JUMPDEST DUP1 PUSH1 0x2 ADD SLOAD CALLVALUE EQ PUSH2 0x3E6 JUMPI PUSH1 0x40 MLOAD PUSH3 0x461BCD PUSH1 0xE5 SHL DUP2 MSTORE PUSH1 0x20 PUSH1 0x4 DUP3 ADD MSTORE PUSH1 0xD PUSH1 0x24 DUP3 ADD MSTORE PUSH13 0x1DDC9BDB99C81C185E5B595B9D PUSH1 0x9A SHL PUSH1 0x44 DUP3 ADD MSTORE PUSH1 0x64 ADD PUSH2 0x2CE JUMP JUMPDEST CALLER PUSH0 SWAP1 DUP2 MSTORE PUSH1 0x3 PUSH1 0x20 SWAP1 DUP2 MSTORE PUSH1 0x40 DUP1 DUP4 KECCAK256 DUP6 DUP5 MSTORE SWAP1 SWAP2 MSTORE DUP2 KECCAK256 DUP1 SLOAD PUSH1 0xFF NOT AND PUSH1 0x1 OR SWAP1 SSTORE DUP1 SLOAD PUSH2 0x2710 SWAP1 PUSH2 0x426 SWAP1 PUSH2 0xFFFF PUSH1 0x1 PUSH1 0xA0 SHL SWAP1 SWAP2 DIV AND CALLVALUE PUSH2 0xE44 JUMP JUMPDEST PUSH2 0x430 SWAP2 SWAP1 PUSH2 0xE5B JUMP JUMPDEST SWAP1 POP PUSH0 PUSH2 0x43D DUP3 CALLVALUE PUSH2 0xE7A JUMP JUMPDEST SWAP1 POP PUSH0 JUMPDEST DUP4 SLOAD DUP2 LT ISZERO PUSH2 0x54E JUMPI PUSH0 PUSH2 0x2710 DUP6 PUSH1 0x1 ADD DUP4 DUP2 SLOAD DUP2 LT PUSH2 0x463 JUMPI PUSH2 0x463 PUSH2 0xE8D JUMP JUMPDEST PUSH0 SWAP2 DUP3 MSTORE PUSH1 0x20 SWAP1 SWAP2 KECCAK256 PUSH1 0x10 DUP3 DIV ADD SLOAD PUSH2 0x48C SWAP2 PUSH1 0xF AND PUSH1 0x2 MUL PUSH2 0x100 EXP SWAP1 DIV PUSH2 0xFFFF AND DUP6 PUSH2 0xE44 JUMP JUMPDEST PUSH2 0x496 SWAP2 SWAP1 PUSH2 0xE5B JUMP JUMPDEST SWAP1 POP DUP1 PUSH1 0x4 PUSH0 DUP8 PUSH0 ADD DUP6 DUP2 SLOAD DUP2 LT PUSH2 0x4B0 JUMPI PUSH2 0x4B0 PUSH2 0xE8D JUMP JUMPDEST PUSH0 SWAP2 DUP3 MSTORE PUSH1 0x20 DUP1 DUP4 KECCAK256 SWAP1 SWAP2 ADD SLOAD PUSH1 0x1 PUSH1 0x1 PUSH1 0xA0 SHL SUB AND DUP4 MSTORE DUP3 ADD SWAP3 SWAP1 SWAP3 MSTORE PUSH1 0x40 ADD DUP2 KECCAK256 DUP1 SLOAD SWAP1 SWAP2 SWAP1 PUSH2 0x4E3 SWAP1 DUP5 SWAP1 PUSH2 0xEA1 JUMP JUMPDEST SWAP1 SWAP2 SSTORE POP POP DUP5 SLOAD DUP6 SWAP1 DUP4 SWAP1 DUP2 LT PUSH2 0x4FC JUMPI PUSH2 0x4FC PUSH2 0xE8D JUMP JUMPDEST PUSH0 SWAP2 DUP3 MSTORE PUSH1 0x20 SWAP2 DUP3 SWAP1 KECCAK256 ADD SLOAD PUSH1 0x40 MLOAD DUP4 DUP2 MSTORE PUSH1 0x1 PUSH1 0x1 PUSH1 0xA0 SHL SUB SWAP1 SWAP2 AND SWAP2 PUSH32 0x14F433C13BADC2239830AB3BB19E75DEC63D39F851363844CC4E4650D0C9B601 SWAP2 ADD PUSH1 0x40 MLOAD DUP1 SWAP2 SUB SWAP1 LOG2 POP PUSH1 0x1 ADD PUSH2 0x441 JUMP JUMPDEST POP PUSH1 0x40 MLOAD CALLVALUE DUP2 MSTORE CALLER SWAP1 DUP6 SWAP1 PUSH32 0x4EB6E0F96B0E81B772FF51C09F43836A2FF429D38E973BE4BC811A669229E818 SWAP1 PUSH1 0x20 ADD PUSH1 0x40 MLOAD DUP1 SWAP2 SUB SWAP1 LOG3 POP POP POP POP JUMP JUMPDEST CALLER PUSH0 SWAP1 DUP2 MSTORE PUSH1 0x4 PUSH1 0x20 MSTORE PUSH1 0x40 SWAP1 KECCAK256 SLOAD DUP1 PUSH2 0x5D6 JUMPI PUSH1 0x40 MLOAD PUSH3 0x461BCD PUSH1 0xE5 SHL DUP2 MSTORE PUSH1 0x20 PUSH1 0x4 DUP3 ADD MSTORE PUSH1 0xB PUSH1 0x24 DUP3 ADD MSTORE PUSH11 0x6E6F206561726E696E6773 PUSH1 0xA8 SHL PUSH1 0x44 DUP3 ADD MSTORE PUSH1 0x64 ADD PUSH2 0x2CE JUMP JUMPDEST CALLER PUSH0 DUP2 DUP2 MSTORE PUSH1 0x4 PUSH1 0x20 MSTORE PUSH1 0x40 DUP1 DUP3 KECCAK256 DUP3 SWAP1 SSTORE MLOAD SWAP1 SWAP2 SWAP1 DUP4 SWAP1 DUP4 DUP2 DUP2 DUP2 DUP6 DUP8 GAS CALL SWAP3 POP POP POP RETURNDATASIZE DUP1 PUSH0 DUP2 EQ PUSH2 0x624 JUMPI PUSH1 0x40 MLOAD SWAP2 POP PUSH1 0x1F NOT PUSH1 0x3F RETURNDATASIZE ADD AND DUP3 ADD PUSH1 0x40 MSTORE RETURNDATASIZE DUP3 MSTORE RETURNDATASIZE PUSH0 PUSH1 0x20 DUP5 ADD RETURNDATACOPY PUSH2 0x629 JUMP JUMPDEST PUSH1 0x60 SWAP2 POP JUMPDEST POP POP SWAP1 POP DUP1 PUSH2 0x66C JUMPI PUSH1 0x40 MLOAD PUSH3 0x461BCD PUSH1 0xE5 SHL DUP2 MSTORE PUSH1 0x20 PUSH1 0x4 DUP3 ADD MSTORE PUSH1 0xF PUSH1 0x24 DUP3 ADD MSTORE PUSH15 0x1D1C985B9CD9995C8819985A5B1959 PUSH1 0x8A SHL PUSH1 0x44 DUP3 ADD MSTORE PUSH1 0x64 ADD PUSH2 0x2CE JUMP JUMPDEST PUSH1 0x40 MLOAD DUP3 DUP2 MSTORE CALLER SWAP1 PUSH32 0x48DC35AF7B45E2A81FFFAD55F6E2FAFACDB1D3D0D50D24EBDC16324F5BA757F1 SWAP1 PUSH1 0x20 ADD PUSH1 0x40 MLOAD DUP1 SWAP2 SUB SWAP1 LOG2 POP POP JUMP JUMPDEST PUSH0 SLOAD PUSH1 0x1 PUSH1 0x1 PUSH1 0xA0 SHL SUB AND CALLER EQ PUSH2 0x6CE JUMPI PUSH1 0x40 MLOAD PUSH3 0x461BCD PUSH1 0xE5 SHL DUP2 MSTORE PUSH1 0x4 ADD PUSH2 0x2CE SWAP1 PUSH2 0xE0C JUMP JUMPDEST PUSH0 DUP1 SLOAD PUSH1 0x40 MLOAD SELFBALANCE SWAP3 SWAP2 PUSH1 0x1 PUSH1 0x1 PUSH1 0xA0 SHL SUB AND SWAP1 DUP4 SWAP1 DUP4 DUP2 DUP2 DUP2 DUP6 DUP8 GAS CALL SWAP3 POP POP POP RETURNDATASIZE DUP1 PUSH0 DUP2 EQ PUSH2 0x719 JUMPI PUSH1 0x40 MLOAD SWAP2 POP PUSH1 0x1F NOT PUSH1 0x3F RETURNDATASIZE ADD AND DUP3 ADD PUSH1 0x40 MSTORE RETURNDATASIZE DUP3 MSTORE RETURNDATASIZE PUSH0 PUSH1 0x20 DUP5 ADD RETURNDATACOPY PUSH2 0x71E JUMP JUMPDEST PUSH1 0x60 SWAP2 POP JUMPDEST POP POP SWAP1 POP DUP1 PUSH2 0x761 JUMPI PUSH1 0x40 MLOAD PUSH3 0x461BCD PUSH1 0xE5 SHL DUP2 MSTORE PUSH1 0x20 PUSH1 0x4 DUP3 ADD MSTORE PUSH1 0xF PUSH1 0x24 DUP3 ADD MSTORE PUSH15 0x1D1C985B9CD9995C8819985A5B1959 PUSH1 0x8A SHL PUSH1 0x44 DUP3 ADD MSTORE PUSH1 0x64 ADD PUSH2 0x2CE JUMP JUMPDEST POP POP JUMP JUMPDEST PUSH0 DUP1 SLOAD PUSH1 0x1 PUSH1 0x1 PUSH1 0xA0 SHL SUB AND CALLER EQ PUSH2 0x78F JUMPI PUSH1 0x40 MLOAD PUSH3 0x461BCD PUSH1 0xE5 SHL DUP2 MSTORE PUSH1 0x4 ADD PUSH2 0x2CE SWAP1 PUSH2 0xE0C JUMP JUMPDEST DUP6 PUSH2 0x7CA JUMPI PUSH1 0x40 MLOAD PUSH3 0x461BCD PUSH1 0xE5 SHL DUP2 MSTORE PUSH1 0x20 PUSH1 0x4 DUP3 ADD MSTORE PUSH1 0xB PUSH1 0x24 DUP3 ADD MSTORE PUSH11 0x6E6F2063726561746F7273 PUSH1 0xA8 SHL PUSH1 0x44 DUP3 ADD MSTORE PUSH1 0x64 ADD PUSH2 0x2CE JUMP JUMPDEST DUP6 DUP5 EQ PUSH2 0x80B JUMPI PUSH1 0x40 MLOAD PUSH3 0x461BCD PUSH1 0xE5 SHL DUP2 MSTORE PUSH1 0x20 PUSH1 0x4 DUP3 ADD MSTORE PUSH1 0xF PUSH1 0x24 DUP3 ADD MSTORE PUSH15 0xD8CADCCEE8D040DAD2E6DAC2E8C6D PUSH1 0x8B SHL PUSH1 0x44 DUP3 ADD MSTORE PUSH1 0x64 ADD PUSH2 0x2CE JUMP JUMPDEST PUSH0 DUP4 GT PUSH2 0x84E JUMPI PUSH1 0x40 MLOAD PUSH3 0x461BCD PUSH1 0xE5 SHL DUP2 MSTORE PUSH1 0x20 PUSH1 0x4 DUP3 ADD MSTORE PUSH1 0x11 PUSH1 0x24 DUP3 ADD MSTORE PUSH17 0x7072696365206D757374206265203E203 PUSH1 0x7C SHL PUSH1 0x44 DUP3 ADD MSTORE PUSH1 0x64 ADD PUSH2 0x2CE JUMP JUMPDEST PUSH0 DUP1 JUMPDEST DUP6 DUP2 LT ISZERO PUSH2 0x967 JUMPI PUSH0 DUP10 DUP10 DUP4 DUP2 DUP2 LT PUSH2 0x86C JUMPI PUSH2 0x86C PUSH2 0xE8D JUMP JUMPDEST SWAP1 POP PUSH1 0x20 MUL ADD PUSH1 0x20 DUP2 ADD SWAP1 PUSH2 0x881 SWAP2 SWAP1 PUSH2 0xD47 JUMP JUMPDEST PUSH1 0x1 PUSH1 0x1 PUSH1 0xA0 SHL SUB AND SUB PUSH2 0x8C6 JUMPI PUSH1 0x40 MLOAD PUSH3 0x461BCD PUSH1 0xE5 SHL DUP2 MSTORE PUSH1 0x20 PUSH1 0x4 DUP3 ADD MSTORE PUSH1 0xC PUSH1 0x24 DUP3 ADD MSTORE PUSH12 0x7A65726F2061646472657373 PUSH1 0xA0 SHL PUSH1 0x44 DUP3 ADD MSTORE PUSH1 0x64 ADD PUSH2 0x2CE JUMP JUMPDEST PUSH0 DUP8 DUP8 DUP4 DUP2 DUP2 LT PUSH2 0x8D9 JUMPI PUSH2 0x8D9 PUSH2 0xE8D JUMP JUMPDEST SWAP1 POP PUSH1 0x20 MUL ADD PUSH1 0x20 DUP2 ADD SWAP1 PUSH2 0x8EE SWAP2 SWAP1 PUSH2 0xEB4 JUMP JUMPDEST PUSH2 0xFFFF AND GT PUSH2 0x92C JUMPI PUSH1 0x40 MLOAD PUSH3 0x461BCD PUSH1 0xE5 SHL DUP2 MSTORE PUSH1 0x20 PUSH1 0x4 DUP3 ADD MSTORE PUSH1 0xA PUSH1 0x24 DUP3 ADD MSTORE PUSH10 0x7A65726F207368617265 PUSH1 0xB0 SHL PUSH1 0x44 DUP3 ADD MSTORE PUSH1 0x64 ADD PUSH2 0x2CE JUMP JUMPDEST DUP7 DUP7 DUP3 DUP2 DUP2 LT PUSH2 0x93E JUMPI PUSH2 0x93E PUSH2 0xE8D JUMP JUMPDEST SWAP1 POP PUSH1 0x20 MUL ADD PUSH1 0x20 DUP2 ADD SWAP1 PUSH2 0x953 SWAP2 SWAP1 PUSH2 0xEB4 JUMP JUMPDEST PUSH2 0x95D SWAP1 DUP4 PUSH2 0xED5 JUMP JUMPDEST SWAP2 POP PUSH1 0x1 ADD PUSH2 0x851 JUMP JUMPDEST POP DUP1 PUSH2 0xFFFF AND PUSH2 0x2710 EQ PUSH2 0x9BD JUMPI PUSH1 0x40 MLOAD PUSH3 0x461BCD PUSH1 0xE5 SHL DUP2 MSTORE PUSH1 0x20 PUSH1 0x4 DUP3 ADD MSTORE PUSH1 0x18 PUSH1 0x24 DUP3 ADD MSTORE PUSH32 0x736861726573206D7573742073756D20746F2031303030300000000000000000 PUSH1 0x44 DUP3 ADD MSTORE PUSH1 0x64 ADD PUSH2 0x2CE JUMP JUMPDEST PUSH1 0x1 DUP1 SLOAD SWAP1 PUSH0 PUSH2 0x9CC DUP4 PUSH2 0xEF7 JUMP JUMPDEST SWAP1 SWAP2 SSTORE POP PUSH0 DUP2 DUP2 MSTORE PUSH1 0x2 PUSH1 0x20 DUP2 SWAP1 MSTORE PUSH1 0x40 DUP3 KECCAK256 SWAP1 DUP2 ADD DUP8 SWAP1 SSTORE PUSH1 0x3 DUP2 ADD DUP7 SWAP1 SSTORE PUSH1 0x4 DUP2 ADD DUP1 SLOAD PUSH1 0xFF NOT AND PUSH1 0x1 OR SWAP1 SSTORE SWAP2 SWAP4 POP JUMPDEST DUP9 DUP2 LT ISZERO PUSH2 0xACC JUMPI DUP2 DUP11 DUP11 DUP4 DUP2 DUP2 LT PUSH2 0xA1A JUMPI PUSH2 0xA1A PUSH2 0xE8D JUMP JUMPDEST SWAP1 POP PUSH1 0x20 MUL ADD PUSH1 0x20 DUP2 ADD SWAP1 PUSH2 0xA2F SWAP2 SWAP1 PUSH2 0xD47 JUMP JUMPDEST DUP2 SLOAD PUSH1 0x1 DUP1 DUP3 ADD DUP5 SSTORE PUSH0 SWAP4 DUP5 MSTORE PUSH1 0x20 SWAP1 SWAP4 KECCAK256 ADD DUP1 SLOAD PUSH1 0x1 PUSH1 0x1 PUSH1 0xA0 SHL SUB NOT AND PUSH1 0x1 PUSH1 0x1 PUSH1 0xA0 SHL SUB SWAP3 SWAP1 SWAP3 AND SWAP2 SWAP1 SWAP2 OR SWAP1 SSTORE DUP3 ADD DUP9 DUP9 DUP4 DUP2 DUP2 LT PUSH2 0xA74 JUMPI PUSH2 0xA74 PUSH2 0xE8D JUMP JUMPDEST SWAP1 POP PUSH1 0x20 MUL ADD PUSH1 0x20 DUP2 ADD SWAP1 PUSH2 0xA89 SWAP2 SWAP1 PUSH2 0xEB4 JUMP JUMPDEST DUP2 SLOAD PUSH1 0x1 DUP1 DUP3 ADD DUP5 SSTORE PUSH0 SWAP4 DUP5 MSTORE PUSH1 0x20 SWAP1 SWAP4 KECCAK256 PUSH1 0x10 DUP3 DIV ADD DUP1 SLOAD PUSH1 0xF SWAP1 SWAP3 AND PUSH1 0x2 MUL PUSH2 0x100 EXP PUSH2 0xFFFF DUP2 DUP2 MUL NOT SWAP1 SWAP4 AND SWAP4 SWAP1 SWAP3 AND SWAP2 SWAP1 SWAP2 MUL SWAP2 SWAP1 SWAP2 OR SWAP1 SSTORE ADD PUSH2 0x9FF JUMP JUMPDEST POP PUSH1 0x40 DUP1 MLOAD DUP7 DUP2 MSTORE PUSH1 0xFF DUP11 AND PUSH1 0x20 DUP3 ADD MSTORE DUP5 SWAP2 PUSH32 0x92B6117EDFF650E2266C739A9C83ABEDEE914F1054C8D1B82982AD16CCD8B315 SWAP2 ADD PUSH1 0x40 MLOAD DUP1 SWAP2 SUB SWAP1 LOG2 POP POP SWAP7 SWAP6 POP POP POP POP POP POP JUMP JUMPDEST PUSH0 DUP2 DUP2 MSTORE PUSH1 0x2 PUSH1 0x20 DUP2 DUP2 MSTORE PUSH1 0x40 DUP1 DUP5 KECCAK256 SWAP3 DUP4 ADD SLOAD PUSH1 0x3 DUP5 ADD SLOAD PUSH1 0x4 DUP6 ADD SLOAD DUP6 SLOAD DUP5 MLOAD DUP2 DUP8 MUL DUP2 ADD DUP8 ADD SWAP1 SWAP6 MSTORE DUP1 DUP6 MSTORE PUSH1 0x60 SWAP8 DUP9 SWAP8 SWAP1 SWAP7 DUP8 SWAP7 DUP8 SWAP7 SWAP3 SWAP6 DUP7 SWAP6 PUSH1 0x1 DUP8 ADD SWAP6 SWAP2 SWAP4 PUSH1 0xFF SWAP1 SWAP2 AND SWAP3 SWAP2 DUP8 SWAP2 DUP4 ADD DUP3 DUP3 DUP1 ISZERO PUSH2 0xB9B JUMPI PUSH1 0x20 MUL DUP3 ADD SWAP2 SWAP1 PUSH0 MSTORE PUSH1 0x20 PUSH0 KECCAK256 SWAP1 JUMPDEST DUP2 SLOAD PUSH1 0x1 PUSH1 0x1 PUSH1 0xA0 SHL SUB AND DUP2 MSTORE PUSH1 0x1 SWAP1 SWAP2 ADD SWAP1 PUSH1 0x20 ADD DUP1 DUP4 GT PUSH2 0xB7D JUMPI JUMPDEST POP POP POP POP POP SWAP5 POP DUP4 DUP1 SLOAD DUP1 PUSH1 0x20 MUL PUSH1 0x20 ADD PUSH1 0x40 MLOAD SWAP1 DUP2 ADD PUSH1 0x40 MSTORE DUP1 SWAP3 SWAP2 SWAP1 DUP2 DUP2 MSTORE PUSH1 0x20 ADD DUP3 DUP1 SLOAD DUP1 ISZERO PUSH2 0xC12 JUMPI PUSH1 0x20 MUL DUP3 ADD SWAP2 SWAP1 PUSH0 MSTORE PUSH1 0x20 PUSH0 KECCAK256 SWAP1 PUSH0 SWAP1 JUMPDEST DUP3 DUP3 SWAP1 SLOAD SWAP1 PUSH2 0x100 EXP SWAP1 DIV PUSH2 0xFFFF AND PUSH2 0xFFFF AND DUP2 MSTORE PUSH1 0x20 ADD SWAP1 PUSH1 0x2 ADD SWAP1 PUSH1 0x20 DUP3 PUSH1 0x1 ADD DIV SWAP3 DUP4 ADD SWAP3 PUSH1 0x1 SUB DUP3 MUL SWAP2 POP DUP1 DUP5 GT PUSH2 0xBD9 JUMPI SWAP1 POP JUMPDEST POP POP POP POP POP SWAP4 POP SWAP6 POP SWAP6 POP SWAP6 POP SWAP6 POP SWAP6 POP POP SWAP2 SWAP4 SWAP6 SWAP1 SWAP3 SWAP5 POP JUMP JUMPDEST DUP1 CALLDATALOAD PUSH1 0x1 PUSH1 0x1 PUSH1 0xA0 SHL SUB DUP2 AND DUP2 EQ PUSH2 0xC43 JUMPI PUSH0 DUP1 REVERT JUMPDEST SWAP2 SWAP1 POP JUMP JUMPDEST PUSH0 DUP1 PUSH1 0x40 DUP4 DUP6 SUB SLT ISZERO PUSH2 0xC59 JUMPI PUSH0 DUP1 REVERT JUMPDEST PUSH2 0xC62 DUP4 PUSH2 0xC2D JUMP JUMPDEST SWAP5 PUSH1 0x20 SWAP4 SWAP1 SWAP4 ADD CALLDATALOAD SWAP4 POP POP POP JUMP JUMPDEST PUSH0 PUSH1 0x20 DUP3 DUP5 SUB SLT ISZERO PUSH2 0xC80 JUMPI PUSH0 DUP1 REVERT JUMPDEST POP CALLDATALOAD SWAP2 SWAP1 POP JUMP JUMPDEST PUSH0 DUP1 DUP4 PUSH1 0x1F DUP5 ADD SLT PUSH2 0xC97 JUMPI PUSH0 DUP1 REVERT JUMPDEST POP DUP2 CALLDATALOAD PUSH8 0xFFFFFFFFFFFFFFFF DUP2 GT ISZERO PUSH2 0xCAE JUMPI PUSH0 DUP1 REVERT JUMPDEST PUSH1 0x20 DUP4 ADD SWAP2 POP DUP4 PUSH1 0x20 DUP3 PUSH1 0x5 SHL DUP6 ADD ADD GT ISZERO PUSH2 0xCC8 JUMPI PUSH0 DUP1 REVERT JUMPDEST SWAP3 POP SWAP3 SWAP1 POP JUMP JUMPDEST PUSH0 DUP1 PUSH0 DUP1 PUSH0 DUP1 PUSH1 0x80 DUP8 DUP10 SUB SLT ISZERO PUSH2 0xCE4 JUMPI PUSH0 DUP1 REVERT JUMPDEST DUP7 CALLDATALOAD PUSH8 0xFFFFFFFFFFFFFFFF DUP1 DUP3 GT ISZERO PUSH2 0xCFB JUMPI PUSH0 DUP1 REVERT JUMPDEST PUSH2 0xD07 DUP11 DUP4 DUP12 ADD PUSH2 0xC87 JUMP JUMPDEST SWAP1 SWAP9 POP SWAP7 POP PUSH1 0x20 DUP10 ADD CALLDATALOAD SWAP2 POP DUP1 DUP3 GT ISZERO PUSH2 0xD1F JUMPI PUSH0 DUP1 REVERT JUMPDEST POP PUSH2 0xD2C DUP10 DUP3 DUP11 ADD PUSH2 0xC87 JUMP JUMPDEST SWAP8 SWAP11 SWAP7 SWAP10 POP SWAP8 PUSH1 0x40 DUP2 ADD CALLDATALOAD SWAP7 PUSH1 0x60 SWAP1 SWAP2 ADD CALLDATALOAD SWAP6 POP SWAP4 POP POP POP POP JUMP JUMPDEST PUSH0 PUSH1 0x20 DUP3 DUP5 SUB SLT ISZERO PUSH2 0xD57 JUMPI PUSH0 DUP1 REVERT JUMPDEST PUSH2 0xD60 DUP3 PUSH2 0xC2D JUMP JUMPDEST SWAP4 SWAP3 POP POP POP JUMP JUMPDEST PUSH1 0xA0 DUP1 DUP3 MSTORE DUP7 MLOAD SWAP1 DUP3 ADD DUP2 SWAP1 MSTORE PUSH0 SWAP1 PUSH1 0x20 SWAP1 PUSH1 0xC0 DUP5 ADD SWAP1 DUP3 DUP11 ADD DUP5 JUMPDEST DUP3 DUP2 LT ISZERO PUSH2 0xDA8 JUMPI DUP2 MLOAD PUSH1 0x1 PUSH1 0x1 PUSH1 0xA0 SHL SUB AND DUP5 MSTORE SWAP3 DUP5 ADD SWAP3 SWAP1 DUP5 ADD SWAP1 PUSH1 0x1 ADD PUSH2 0xD83 JUMP JUMPDEST POP POP POP DUP4 DUP2 SUB DUP3 DUP6 ADD MSTORE DUP8 MLOAD DUP1 DUP3 MSTORE DUP9 DUP4 ADD SWAP2 DUP4 ADD SWAP1 PUSH0 JUMPDEST DUP2 DUP2 LT ISZERO PUSH2 0xDE0 JUMPI DUP4 MLOAD PUSH2 0xFFFF AND DUP4 MSTORE SWAP3 DUP5 ADD SWAP3 SWAP2 DUP5 ADD SWAP2 PUSH1 0x1 ADD PUSH2 0xDC0 JUMP JUMPDEST POP POP DUP1 SWAP4 POP POP POP POP DUP5 PUSH1 0x40 DUP4 ADD MSTORE DUP4 PUSH1 0x60 DUP4 ADD MSTORE PUSH2 0xE02 PUSH1 0x80 DUP4 ADD DUP5 ISZERO ISZERO SWAP1 MSTORE JUMP JUMPDEST SWAP7 SWAP6 POP POP POP POP POP POP JUMP JUMPDEST PUSH1 0x20 DUP1 DUP3 MSTORE PUSH1 0xA SWAP1 DUP3 ADD MSTORE PUSH10 0x37B7363C9037BBB732B9 PUSH1 0xB1 SHL PUSH1 0x40 DUP3 ADD MSTORE PUSH1 0x60 ADD SWAP1 JUMP JUMPDEST PUSH4 0x4E487B71 PUSH1 0xE0 SHL PUSH0 MSTORE PUSH1 0x11 PUSH1 0x4 MSTORE PUSH1 0x24 PUSH0 REVERT JUMPDEST DUP1 DUP3 MUL DUP2 ISZERO DUP3 DUP3 DIV DUP5 EQ OR PUSH2 0x29F JUMPI PUSH2 0x29F PUSH2 0xE30 JUMP JUMPDEST PUSH0 DUP3 PUSH2 0xE75 JUMPI PUSH4 0x4E487B71 PUSH1 0xE0 SHL PUSH0 MSTORE PUSH1 0x12 PUSH1 0x4 MSTORE PUSH1 0x24 PUSH0 REVERT JUMPDEST POP DIV SWAP1 JUMP JUMPDEST DUP2 DUP2 SUB DUP2 DUP2 GT ISZERO PUSH2 0x29F JUMPI PUSH2 0x29F PUSH2 0xE30 JUMP JUMPDEST PUSH4 0x4E487B71 PUSH1 0xE0 SHL PUSH0 MSTORE PUSH1 0x32 PUSH1 0x4 MSTORE PUSH1 0x24 PUSH0 REVERT JUMPDEST DUP1 DUP3 ADD DUP1 DUP3 GT ISZERO PUSH2 0x29F JUMPI PUSH2 0x29F PUSH2 0xE30 JUMP JUMPDEST PUSH0 PUSH1 0x20 DUP3 DUP5 SUB SLT ISZERO PUSH2 0xEC4 JUMPI PUSH0 DUP1 REVERT JUMPDEST DUP2 CALLDATALOAD PUSH2 0xFFFF DUP2 AND DUP2 EQ PUSH2 0xD60 JUMPI PUSH0 DUP1 REVERT JUMPDEST PUSH2 0xFFFF DUP2 DUP2 AND DUP4 DUP3 AND ADD SWAP1 DUP1 DUP3 GT ISZERO PUSH2 0xEF0 JUMPI PUSH2 0xEF0 PUSH2 0xE30 JUMP JUMPDEST POP SWAP3 SWAP2 POP POP JUMP JUMPDEST PUSH0 PUSH1 0x1 DUP3 ADD PUSH2 0xF08 JUMPI PUSH2 0xF08 PUSH2 0xE30 JUMP JUMPDEST POP PUSH1 0x1 ADD SWAP1 JUMP INVALID LOG2 PUSH5 0x6970667358 0x22 SLT KECCAK256 DUP1 CALLER 0x26 EXTCODESIZE SWAP11 KECCAK256 PUSH15 0x94D7CAED7B5A84CFD9684B2CB1622B EXTCODECOPY MSTORE8 NUMBER RETURNDATACOPY 0xC4 BASEFEE 0xEB PUSH23 0xD9D164736F6C6343000818003300000000000000000000 "},"methodIdentifiers":{"creatorBalance(address)":"e6cd7ab6","deactivateRoute(uint256)":"279b6d31","getRoute(uint256)":"fa66358a","hasPurchased(address,uint256)":"11923132","nextRouteId()":"975cf313","owner()":"8da5cb5b","platformFeeBps()":"22dcd13e","purchaseRoute(uint256)":"4f7033ca","purchased(address,uint256)":"e597ef12","registerRoute(address[],uint16[],uint256,bytes32)":"dd74e57e","withdrawEarnings()":"b73c6ce9","withdrawPlatformFees()":"d0b7830b"}}}}}